:020000040800F2
:100000009808002049010008830A0008E109000857
:10001000810A0008B50100085F0B0008000000001D
:10002000000000000000000000000000F90A0008C5
:10003000B701000800000000850A0008FB0A00085C
:100040006301000863010008630100086301000800
:1000500063010008630100086301000863010008F0
:1000600063010008630100086301000863010008E0
:1000700063010008630100086301000863010008D0
:1000800063010008630100086301000863010008C0
:1000900063010008630100086301000863010008B0
:1000A00063010008630100086301000863010008A0
:1000B0006301000863010008630100086301000890
:1000C0006301000863010008630100086301000880
:1000D0006301000863010008630100086301000870
:1000E0006301000863010008630100086301000860
:1000F0006301000863010008630100086301000850
:10010000630100086301000863010008630100083F
:10011000630100086301000863010008630100082F
:10012000630100086301000863010008630100081F
:10013000DFF810D000F02CF800480047810C0008D0
:10014000AFF3008098080020064880470648004723
:10015000FEE7FEE7FEE7FEE7FEE7FEE7FEE7FEE777
:10016000FEE7FEE75D0B000831010008D2B201E0B6
:1001700000F8012B491EFBD270470022F6E710B5AC
:1001800013460A4604461946FFF7F0FF204610BD05
:10019000064C074D06E0E06840F0010394E80700D4
:1001A00098471034AC42F6D3FFF7C6FF601800083A
:1001B00080180008FEE7704770B5044600F010F99B
:1001C0000546601C02D004480078044400F008F999
:1001D000401BA042FAD370BD000000202DE9F84F6B
:1001E000DFF8C891002409F1040A0AF1040B234640
:1001F0000F270BF1040ED1E00125A54006EA050208
:10020000AA4276D1DFF8A8C14E68A6EB0C08664575
:100210002BD00DDC032E34D005DC36B3012E19D0E3
:10022000022E2FD11BE0112E16D0122E2AD119E04A
:10023000B8F5881F19D006DCB8F5803F15D0B8F5A1
:10024000801F1FD111E0B8F5001F0ED0B8F5041FB4
:1002500018D10AE0CB6815E0CB681B1D12E0CB6813
:1002600008330FE0CB680C330CE08B682BB1012B0B
:100270004FF0080303D0456104E0042302E0056168
:1002800000E00023FF2A01D8064601E000F1040641
:100290004FEA840501D9A5F12005D6F8008007FAB8
:1002A00005FC28EA0C0803FA05F548EA0508C6F833
:1002B00000804D68ED0070D53E4DAE6946F00106F8
:1002C000AE61AD6924F0030605F0010500953A4DD5
:1002D00006EB050CDCF80850A607360F07FA06F8FF
:1002E00025EA0805DFF8D480404503D14FF0000827
:1002F00025E052E0DFF8C880404502D14FF0010808
:100300001DE0DFF8C080404502D14FF0020816E042
:10031000DFF8B480404502D14FF003080FE0DFF86A
:10032000AC80404502D14FF0040808E0DFF8A0801F
:10033000404502D14FF0050801E04FF0060808FAE9
:1003400006F848EA0508CCF808804D68D9F800603E
:10035000ED034D4601D5164300E096432E604D68EF
:10036000DAF80060AD03554601D5164300E0964328
:100370002E604D68DBF80060ED025D4601D5164346
:1003800000E096432E604D68DEF80060AD027546D1
:1003900001D5164300E096432E60641C0A68164699
:1003A000E2407FF429AFBDE8F88F0000000401406F
:1003B0000000111000100240000001400008014040
:1003C000000C0140001001400014014000180140E1
:1003D000001C01400AB1016170470904FBE70000FD
:1003E00001488068704700000000002002488168D2
:1003F000027811448160704700000020074810B562
:10040000016841F010010160032000F067F80F203F
:1004100000F006F800F024F8002010BD0020024093
:1004200070B50D4D04464FF47A712878B1FBF0F0A9
:100430000A490968B1FBF0F000F0BEFA48B9102C87
:1004400007D200222146501E00F028F800206C60E0
:1004500070BD012070BD0000000000200C000020D5
:100460000C4808B5816941F001018161816901F0A1
:1004700001010091C16941F08051C161C06900F082
:10048000805000900448416821F0E06141F0007123
:10049000416008BD0010024000000140F0B40E4B66
:1004A0001B680C46C3F30223C3F10705042D00D9D2
:1004B0000425191D072901D2002300E0DB1E0126B7
:1004C00006FA05F1491E214099409E40761E1640CD
:1004D0003143F0BC00F044BB0CED00E0064900F0F5
:1004E000070208684FF6FF03184040EA0220034A5B
:1004F00010430860704700000CED00E00000FA05B2
:100500002DE9F0470F46050061D0434E306800F0FA
:100510000700B84209D2306820F007003843306045
:10052000306800F00700B84251D128683B4C810781
:1005300012D5400703D5606840F4E0606060287819
:10054000000703D5606840F4605060606068A96887
:1005500020F0F000084360602878C00728D0686861
:10056000012810D02168022810D0890700292EDA2E
:10057000616821F0030101436160FFF731FF8046AC
:1005800041F288390DE021688903EFE78901EDE741
:10059000FFF726FFA0EB0801494502D90320BDE87B
:1005A000F0876068696800F00C00B0EB810FEFD154
:1005B000306800F00700B8420BD9306820F007001F
:1005C00038433060306800F00700B84201D00120A5
:1005D000E5E72878400705D56068E96820F4E06021
:1005E000084360602878000706D56068296920F410
:1005F000605040EAC100606000F018F86168084A85
:10060000C1F30311515CC840064908600648006800
:10061000FFF706FF0020C2E7002002400010024062
:10062000201700080C0000200400002012A185B053
:100630000FC98DE80F0014A0144A00680490516897
:10064000134801F00C03042B10D0082B0ED1C1F37A
:100650008343C9031DF803000AD5516804AAC1F3F6
:100660004041515C0A4A5043B0FBF1F005B070477D
:1006700008494843FAE70000020304050607080991
:100680000A0B0C0D0E0F10100102000000100240AA
:1006900000127A0000093D002DE9F84F040070D0E7
:1006A0002078C04DC00749D06868C0F38100012898
:1006B00007D06868C0F38100022809D16868C003C8
:1006C00006D52868800339D560680028E7D035E072
:1006D0006068B0F5803F0BD010B1B0F5A02F11D0FD
:1006E000286820F480302860286820F4802002E008
:1006F000286840F480302860606890B1FFF770FE91
:1007000006460AE0286840F480202860F0E700BF31
:10071000FFF766FE801B642873D828688003F7D52E
:100720000CE0FFF75DFE064605E000BFFFF758FE50
:10073000801B6428F0D828688003F7D420789A4E6C
:1007400080074FF001094FF0000839D5686810F0B4
:100750000C0F07D06868C0F38100022809D16868CF
:10076000C00306D42868800714D52069012808D161
:1007700010E02069B0B1C6F80090FFF731FE0746DF
:1007800005E00AE1FFF72CFEC01B0228C4D8286848
:100790008007F7D52868616920F0F80040EAC100B9
:1007A00028600DE0C6F80080FFF71AFE074604E057
:1007B000FFF716FEC01B022823D828688007F7D44D
:1007C000207800072CD57948A169D9B1C0F80090EC
:1007D000FFF706FE074604E0FFF702FEC01B0228F3
:1007E0000FD8686A8007F7D571484FF4FA5100684E
:1007F000B0FBF1F0009000BF0098411E0091FAD2CA
:100800000EE080E0C0F80080FFF7EAFD074604E054
:10081000FFF7E6FDC01B022875D8686A8007F7D489
:100820002078400760D5E8690027C00008D4E8694F
:1008300040F08050E861E869012700F080500090A6
:100840005C480168C90513D40168834641F480718E
:100850000160FFF7C5FD824606E000BFFFF7C0FD5F
:10086000A0EB0A0064284ED8DBF80000C005F5D5DF
:10087000E06801280AD008B1052813D0286A20F0C2
:1008800001002862286A20F0040002E0286A40F093
:1008900001002862E06841F2883B98B1FFF7A0FDB3
:1008A00082460BE0286A40F004002862EEE700BFB1
:1008B000FFF796FDA0EB0A0159455AD8286A800730
:1008C000F6D50CE0FFF78CFD824605E0FFF788FDCA
:1008D000A0EB0A0159454CD8286A8007F6D41FB10D
:1008E000E86920F08050E861E06988B36968C1F385
:1008F0008101022944D00228C6F8608004D0FFF7A5
:100900006FFD044638E034E0FFF76AFD074604E077
:10091000FFF766FDC01B02282BD828688001F7D49A
:10092000206AB0F5803F05D16868A16820F40030E6
:1009300008436860D4E908010843696821F4741128
:1009400008436860C6F86090FFF74AFD044606E079
:1009500025E000BFFFF744FD001B022809D82868E6
:100960008001F7D51BE000BFFFF73AFD001B02280E
:1009700002D90320BDE8F88F28688001F4D40EE086
:100980000128F7D06868226A00F48031914204D1CE
:10099000616A00F47010884201D00120EAE700206B
:1009A000E8E700000010024000004242800442429A
:1009B0000C0000200070004010B5401EB0F1807F98
:1009C00001D3012010BD4FF0E02460610F216017BA
:1009D00000F0C6F80020A06107202061002010BDB3
:1009E000FEE700002DE9F04385B000242148009483
:1009F000019402940394816941F01001816181693D
:100A000001F010010491816941F00801816181695F
:100A100001F008010491816941F00401816180695C
:100A2000012200F00400DFF85080550304902946AD
:100A30004046FFF7CFFCDFF844904FF440670122B7
:100A400039464846FFF7C6FC009502260125039665
:100A5000CDE9015469464046FFF7C0FB0097039675
:100A6000CDE9015469464846FFF7B8FB05B0BDE83B
:100A7000F08300000010024000100140000C014013
:100A8000FEE7FEE77047000010B52D2920D006DCF8
:100A9000292919D02A290ED02B2905D109E0154B77
:100AA0004C2919D04D291AD0012180F82710012096
:100AB00010BD00BFFBE700204FF4A07100BF401C39
:100AC00080B28842FAD3F2E70120FFF775FBEEE728
:100AD000052000F064F8EAE74FF4806101E04FF48C
:100AE0000061012A01D0002AE1D11846FFF772FC0B
:100AF000DDE70000000C01407047FFF777BC30B520
:100B00008FB028216846FFF738FB14210AA8FFF7A9
:100B100034FB01210804CDE90010002402940225D1
:100B20000491CDE907504FF4E01009906846FFF7B3
:100B3000B3FD08B172B6FEE70F20CDE90A054FF408
:100B40008060CDE90C4002210AA80E94FFF7D8FC82
:100B5000002801D072B6FEE70FB030BD7047FEE747
:100B60000907090E002804DB00F1E02080F80014DA
:100B7000704700F00F0000F1E02080F8141D70476E
:100B800002E008C8121F08C1002AFAD17047704756
:100B9000002001E001C1121F002AFBD17047C000F4
:100BA000401EFDD2704700224C2100F09DBD002266
:100BB0004D2100F099BD01684A7B2D2100F094BDC4
:100BC00010B5044601224C2100F08EFD2046BDE800
:100BD0001040FFF7F0BF01224D2100F085BD10B598
:100BE000044611B1FFF7F7FF01E0FFF7E0FF2046F1
:100BF000FFF7E1FF2046FFF7E3FF2046BDE8104086
:100C0000FFF7D1BF70B50C46054601F08001FFF734
:100C1000E6FF04F040012846FFF7E1FF04F0200161
:100C20002846FFF7DCFF04F010012846FFF7D7FF46
:100C300004F008012846FFF7D2FF04F0040128461B
:100C4000FFF7CDFF04F002012846FFF7C8FF04F0CC
:100C500001012846FFF7C3FF2846FFF7BCFF2846DF
:100C6000FFF7A9FF2846FFF7ABFF2846FFF7B3FFC2
:100C70002846FFF7A0FF2846BDE87040FFF793BF66
:100C8000A6B0FFF7BBFBFFF73AFFFFF7ABFE184B31
:100C9000184A194901A800F01FF901A800F0F6FA56
:100CA000002101A800F002FB0F256420FFF784FA61
:100CB00001A800F023F8641C202C00DB0124A3B25F
:100CC0002022402101A8009500F021F82022A3B2A3
:100CD000114601A8009500F01AF8A3B22022602165
:100CE00001A8009500F013F801A800F0B6F8DCE7C1
:100CF000890A0008431300083017000801680A7CBD
:100D000090F83810406B5143C900FFF736BA2DE90F
:100D1000F8431C4680461019401C80B20090081908
:100D2000401C83B21546101B82B20E46081B81B2CE
:100D3000089F404600F079F8002806D023462A464E
:100D400031464046009700F038F9BDE8F8830000CE
:100D50003FB581B0044690F88C00089900283AD03D
:100D6000BDF81000002836D0012811D9022902D080
:100D7000032907D00CE0BDF80820101A401CADF87C
:100D8000080005E0BDF80C20101A401CADF80C005E
:100D900011F0010521D0B4F84810BDF808008142D7
:100DA00019D8B4F84A10814215D9B4F84E30B4F8C5
:100DB0004C2004A90DF10C0000F0E1F800280AD045
:100DC0000095206BBDF81030BDF80C208568BDF88B
:100DD00008102046A84705B030BDB4F84C10BDF847
:100DE0000C008142F7D8B4F84E108142F3D9B4F820
:100DF0004A30B4F8482004A902A8DDE708B5B0F8E5
:100E00004C30934210D8B0F84E3093420CD9B0F821
:100E100048308B4208D8B0F84A308B4204D90023BE
:100E200000930123FFF794FF08BD70B50D461E46E1
:100E30000446B0F84E10B0F84C00049B00F060F986
:100E4000002809D0B4F84A10B4F8480033462A46BE
:100E5000BDE8704000F054B970BD10B5044600F014
:100E6000A9F92046BDE8104000F018BA0149C16553
:100E700070470000FD1000080021A0F85010A0F8F5
:100E800054104FF6FF71A0F85210A0F85610016BE5
:100E90004968084770B5044600250498A565E362D3
:100EA000616384F8382084F8395084F86D5084F8F0
:100EB0009150012184F8921084F893102063016806
:100EC000204688472046FFF7D7FF2046FFF7CEFF92
:100ED00084F8705070BD00007CB50C46009313463A
:100EE0000546084A084900F0E9F901A800F05CF954
:100EF0000146064B00949DF804202846FFF7CAFFE0
:100F00007CBD0000B9140008E115000819110008A3
:100F100038B50446B0F856000090B4F85230B4F832
:100F20005420B4F850102046FFF77FFF18B301207B
:100F300084F88C00B4F84810B4F85000814201D213
:100F4000A4F84800B4F84A10B4F85200814201D91C
:100F5000A4F84A00B4F84C10B4F85400814201D20D
:100F6000A4F84C00B4F84E10B4F85600814201D9F0
:100F7000A4F84E0038BD002084F88C0038BD30B590
:100F800004880D882544ADB2AC4205D99C4202D2FA
:100F90005D1EADB200E014469C4201D2954201D8DC
:100FA000002030BD944200D214469D4200D91D4617
:100FB0000480281B0880012030BD2DE9FF4FC3F1BC
:100FC000010083B006B258429146DDF840A04000CF
:100FD0008B4601271C46CDE9009A00250FFA80F8C0
:100FE0005B462246294615E0002E08DB08F1020088
:100FF0000FFA80F8641E06EB0800A4B206B26D1C5E
:10100000BF1C3FB2CDE9009AADB2F01906B25B4603
:1010100022462946039800F005F8A542E4D307B01C
:10102000BDE8F08F2DE9FF4F83B00E46DDE9108754
:1010300003EB060002901546A8EB0600019003EBB7
:1010400005001C46F907A8EB050B00900DD002988F
:101050001FFA8BF281B20398FFF7D0FE019882B29B
:10106000009881B20398FFF7C9FEB907A4EB060AFE
:10107000A4EB05090DD51FFA8BF21FFA8AF103982C
:10108000FFF7BCFE01981FFA89F182B20398FFF7BF
:10109000B5FE08EB0504390708EB06050BD50298E9
:1010A000A2B281B20398FFF7A9FE0098AAB281B25A
:1010B0000398FFF7A3FE78070ED5A2B21FFA8AF1B4
:1010C0000398FFF79BFE039807B0AAB21FFA89F1B5
:1010D000BDE8F04FFFF792BE07B0BDE8F08F38B51E
:1010E000C58F049C0094521BC46A92B2A04738BDBD
:1010F00038B5049C0094FFF7F2FF38BD002070471C
:101100008A4205D2834201D89A4203D9012070470E
:101110008342F9D800207047F0B502F00706012499
:10112000B440002590F892E0E7B2DDF814C02C46F8
:10113000BEF1010F01D83D4600D03C46076822F0C1
:101140000702BCF1000F3F7C07FB02F7BAB2476B06
:101150003A44114409D108785B1E284360401B04BF
:1011600001F8010B1B0CF6D1F0BD0A78761C2A435E
:101170006240A3F101030A7016F007069BB206D085
:101180006A06150E6206140E002BEED1F0BD428FDA
:10119000114490F89220012A03D800BF4FF00105B6
:1011A000F2D04FF00104EFE70821017000487047CA
:1011B000980000202DE9F843064690F8387090F822
:1011C0003950006800244FF6FF7890F8119031688C
:1011D00030462A460B7C716B04FB03FC1FFA8CFC27
:1011E00008EACC0C61440091002100F040F8641C36
:1011F0006D1CE4B2EDB2BC4201D24D45E7D3BDE86F
:10120000F883F0B590F838204FF6FF75036805EACB
:10121000C2018187197C05EAC101418790F83940F4
:1012200005EAC401C1875E7CA718B74201D9321B09
:1012300092B205EAC20220F8401F11444180998A07
:101240008180D98AC180F0BDFFF7DBBF0021A0F803
:101250004810B0F84410A0F84A10B0F84010A0F8B8
:101260004C10B0F84210A0F84E10FFF751BE1CB55C
:101270008DF805108DF80620049C8DF8043000943C
:10128000012284686B460F21A0471CBD30B48468DE
:101290000023A44630BC1A460A21604730B4846853
:1012A0000023A44630BC1A461021604730B484683D
:1012B0000023A4460A4630BC0B2160472DE9F041CB
:1012C00015460E460446069F00F00AF86761A660C0
:1012D000C4E903532046BDE8F04100F013B8000014
:1012E000002140F8081B064A026042608260C2602A
:1012F000C17681770161FF21017780F82010704766
:10130000E516000830B484680023A44630BC1A46B1
:101310000921604730B404690023A44630BC1A4652
:101320001921604713B50122046901AB1721A047B9
:101330001CBD30B404690023A44630BC1A461821F1
:10134000604770B516460446182924D004DC1429D9
:1013500014D0172904D105E019293DD020294CD0FB
:10136000002070BD1D4606E029782046FFF74AFCA4
:10137000761EF6B26D1C002EF6D13EE001224C2105
:1013800000F0B2F901224D21204600F0ADF92046CF
:10139000FFF711FC31E094F8250040B12046FFF73B
:1013A0001AFC2046FFF707FC2046FFF709FC204601
:1013B000FFF711FC2046FFF7FAFB2046FFF7FBFB87
:1013C0002046FFF7F0FB012184F82510204694F811
:1013D0002410FFF717FC10E0FFF7E9FB2046FFF7AA
:1013E000EAFB2046FFF7ECFB2046FFF7F4FB204624
:1013F000FFF7E1FB002084F82500012070BD30B428
:10140000C4680023A44630BC1A461921604730B492
:10141000C4680023A4460A4630BC1621604730B495
:10142000C4680023A4460A4630BC1521604730B486
:10143000C4681346A4460A4630BC17216047000022
:10144000F8B50C464FEA000514F8011B182924D002
:101450000EDC152919D0162917D0172923D1207889
:101460008DF800006A4601212846FFF7E0FF0AE0F8
:10147000192912D0FE2916D122788DF800202921B1
:10148000284600F031F9641CDEE722788DF8002050
:10149000EE6800232846B047F5E70023EE681A46B9
:1014A0002846B047D0E7F8BD30B4C4680023A4464E
:1014B00030BC1A46182160472DE9F041DFF8B080B2
:1014C00014460646A1F11402002798F800001D46B4
:1014D000062A4AD2DFE802F02F03161B3E4310B162
:1014E0003046FFF717FF3046FFF723FF0021304655
:1014F000FFF718FF21463046FFF714FF012088F858
:10150000000029E021463046FFF70CFF24E050B1EF
:101510003046FFF7FFFE06E01821304600F0EAF8FB
:10152000183CE4B21835182C2A46F5D82146304626
:1015300000F0E0F80EE096F82400FF2802D17820B1
:1015400086F8240037692B4622463046BC46BDE863
:10155000F041604788F800700120BDE8F081002864
:10156000F8D03046FFF7D6FEF4E70020F5E700009C
:101570001000002070B50023456904461A46282152
:10158000A8470023E5681A4614212046A8470122EF
:101590004B21204600F0A8F8206829210279204636
:1015A00000F0A2F800224B21204600F09DF82068B0
:1015B00029210279204600F097F801224B2120468C
:1015C00000F092F82068292142792046BDE8704059
:1015D00000F08AB80160897C80F822107047000012
:1015E00070B50C46054600F019F890B9092C0BD0DF
:1015F0000A2C01D0002070BD2846FFF7BBFF06492A
:101600002846FFF71DFF04E003492846CE31FFF7C7
:10161000E1FF012070BD0000621700082DE9F041D4
:101620001E46144605460B2908D00D290ED00E295A
:101630001ED00F2927D00020BDE8F0811AB128491B
:10164000FFF7FEFE4AE02649491FF9E74AB124495F
:101650000C31FFF7F5FE286890F8130085F822009A
:101660003CE01F49491DFFF7EBFE2868807CF5E749
:10167000FFF71AFF81212846FFF7D1FE21462846B1
:10168000FFF7C5FE27E0FFF70FFF707995F82210EE
:1016900001EBC000C7B240212846FFF7C0FE102072
:1016A00040EA17112846FFF7BAFE07F00F01284657
:1016B000FFF7ADFEB07940F0B0012846FFF7A7FE76
:1016C00030793268C006010E2846FFF7B0FE641E6E
:1016D00014F0FF04F4D12846FFF791FE0120ABE798
:1016E000411700080020704730B444690023A44625
:1016F00030BC60472DE9F04115460E460446FFF721
:1017000018FE40212046FFF70DFE27692B46324682
:1017100017212046B8472046BDE8F041FFF7FABD43
:101720000000000000000000010203040607080991
:10173000491200084D120008F11000081815AF19E1
:10174000FF1815AE19FF1815A115C819FF1815A017
:1017500015C019FF1815A115C019FF1815A015C837
:1017600019FF1815AE15D5168015A8163F15D316F6
:10177000001540158D16141520160015A115C81555
:10178000DA1612158116CF15D916F115DB1640158C
:101790002E15A415A619FF1815AE15D5168015A877
:1017A000163F15D316001540158D1614152016007A
:1017B00015A115C815DA1612158116EF15D916A13F
:1017C00015DB1600152E15A415A619FF1815AE1554
:1017D000D5168015A8163F15D316001540158D1681
:1017E000141520160015A115C815DA160215811654
:1017F000CF15D916F115DB1640152E15A415A6190F
:10180000FF1815AE15A415D5165015A8163F15D3FB
:101810001600154015AD168B15D9162215DB163599
:101820001532158116FF15A615DA161219FF0000DC
:101830000001140A6464323200127A00000428960F
:1018400010080000800040000001140A6464323275
:1018500000093D00030428961008020280004000A1
:10186000801800080000002018000000800B00080D
:10187000981800081800002080080000900B00084D
:101880000100000010000000000000000024F4002F
:08189000000000000000000050
:0400000508000131BD
:00000001FF
